{
	"enum/enum.sol": {
		"EnumUsage": {
			"abi": [
				{
					"constant": true,
					"inputs": [],
					"name": "isActive",
					"outputs": [
						{
							"internalType": "bool",
							"name": "",
							"type": "bool"
						}
					],
					"payable": false,
					"stateMutability": "view",
					"type": "function"
				},
				{
					"constant": true,
					"inputs": [],
					"name": "state",
					"outputs": [
						{
							"internalType": "enum EnumUsage.State",
							"name": "",
							"type": "uint8"
						}
					],
					"payable": false,
					"stateMutability": "view",
					"type": "function"
				},
				{
					"inputs": [],
					"payable": false,
					"stateMutability": "nonpayable",
					"type": "constructor"
				}
			],
			"devdoc": {
				"methods": {}
			},
			"evm": {
				"assembly": "    /* \"enum/enum.sol\":67:329  contract EnumUsage {\r... */\n  mstore(0x40, 0x80)\n    /* \"enum/enum.sol\":163:224  constructor() public {\r... */\n  callvalue\n    /* \"--CODEGEN--\":8:17   */\n  dup1\n    /* \"--CODEGEN--\":5:7   */\n  iszero\n  tag_1\n  jumpi\n    /* \"--CODEGEN--\":30:31   */\n  0x00\n    /* \"--CODEGEN--\":27:28   */\n  dup1\n    /* \"--CODEGEN--\":20:32   */\n  revert\n    /* \"--CODEGEN--\":5:7   */\ntag_1:\n    /* \"enum/enum.sol\":163:224  constructor() public {\r... */\n  pop\n    /* \"enum/enum.sol\":203:216  State.Waiting */\n  0x00\n    /* \"enum/enum.sol\":195:200  state */\n  dup1\n  0x00\n    /* \"enum/enum.sol\":195:216  state = State.Waiting */\n  0x0100\n  exp\n  dup2\n  sload\n  dup2\n  0xff\n  mul\n  not\n  and\n  swap1\n  dup4\n  0x02\n  dup2\n  gt\n  iszero\n  tag_4\n  jumpi\n  invalid\ntag_4:\n  mul\n  or\n  swap1\n  sstore\n  pop\n    /* \"enum/enum.sol\":67:329  contract EnumUsage {\r... */\n  dataSize(sub_0)\n  dup1\n  dataOffset(sub_0)\n  0x00\n  codecopy\n  0x00\n  return\nstop\n\nsub_0: assembly {\n        /* \"enum/enum.sol\":67:329  contract EnumUsage {\r... */\n      mstore(0x40, 0x80)\n      callvalue\n        /* \"--CODEGEN--\":8:17   */\n      dup1\n        /* \"--CODEGEN--\":5:7   */\n      iszero\n      tag_1\n      jumpi\n        /* \"--CODEGEN--\":30:31   */\n      0x00\n        /* \"--CODEGEN--\":27:28   */\n      dup1\n        /* \"--CODEGEN--\":20:32   */\n      revert\n        /* \"--CODEGEN--\":5:7   */\n    tag_1:\n        /* \"enum/enum.sol\":67:329  contract EnumUsage {\r... */\n      pop\n      jumpi(tag_2, lt(calldatasize, 0x04))\n      shr(0xe0, calldataload(0x00))\n      dup1\n      0x22f3e2d4\n      eq\n      tag_3\n      jumpi\n      dup1\n      0xc19d93fb\n      eq\n      tag_4\n      jumpi\n    tag_2:\n      0x00\n      dup1\n      revert\n        /* \"enum/enum.sol\":232:326  function isActive() public view returns (bool) {\r... */\n    tag_3:\n      tag_5\n      tag_6\n      jump\t// in\n    tag_5:\n      mload(0x40)\n      dup1\n      dup3\n      iszero\n      iszero\n      iszero\n      iszero\n      dup2\n      mstore\n      0x20\n      add\n      swap2\n      pop\n      pop\n      mload(0x40)\n      dup1\n      swap2\n      sub\n      swap1\n      return\n        /* \"enum/enum.sol\":136:154  State public state */\n    tag_4:\n      tag_7\n      tag_8\n      jump\t// in\n    tag_7:\n      mload(0x40)\n      dup1\n      dup3\n      0x02\n      dup2\n      gt\n      iszero\n      tag_9\n      jumpi\n      invalid\n    tag_9:\n      0xff\n      and\n      dup2\n      mstore\n      0x20\n      add\n      swap2\n      pop\n      pop\n      mload(0x40)\n      dup1\n      swap2\n      sub\n      swap1\n      return\n        /* \"enum/enum.sol\":232:326  function isActive() public view returns (bool) {\r... */\n    tag_6:\n        /* \"enum/enum.sol\":273:277  bool */\n      0x00\n        /* \"enum/enum.sol\":306:318  State.Active */\n      0x02\n        /* \"enum/enum.sol\":297:318  state == State.Active */\n      dup1\n      dup2\n      gt\n      iszero\n      tag_11\n      jumpi\n      invalid\n    tag_11:\n        /* \"enum/enum.sol\":297:302  state */\n      0x00\n      dup1\n      swap1\n      sload\n      swap1\n      0x0100\n      exp\n      swap1\n      div\n      0xff\n      and\n        /* \"enum/enum.sol\":297:318  state == State.Active */\n      0x02\n      dup2\n      gt\n      iszero\n      tag_12\n      jumpi\n      invalid\n    tag_12:\n      eq\n        /* \"enum/enum.sol\":290:318  return state == State.Active */\n      swap1\n      pop\n        /* \"enum/enum.sol\":232:326  function isActive() public view returns (bool) {\r... */\n      swap1\n      jump\t// out\n        /* \"enum/enum.sol\":136:154  State public state */\n    tag_8:\n      0x00\n      dup1\n      swap1\n      sload\n      swap1\n      0x0100\n      exp\n      swap1\n      div\n      0xff\n      and\n      dup2\n      jump\t// out\n\n    auxdata: 0xa265627a7a72315820dd8d5ec8c5f4dce17b8f1de10350ef3784d08b2c73acb9f0b27a95f12db6fd1464736f6c634300050b0032\n}\n",
				"bytecode": {
					"linkReferences": {},
					"object": "608060405234801561001057600080fd5b5060008060006101000a81548160ff0219169083600281111561002f57fe5b021790555060f3806100426000396000f3fe6080604052348015600f57600080fd5b506004361060325760003560e01c806322f3e2d4146037578063c19d93fb146057575b600080fd5b603d6080565b604051808215151515815260200191505060405180910390f35b605d60ac565b60405180826002811115606c57fe5b60ff16815260200191505060405180910390f35b6000600280811115608d57fe5b6000809054906101000a900460ff16600281111560a657fe5b14905090565b6000809054906101000a900460ff168156fea265627a7a72315820dd8d5ec8c5f4dce17b8f1de10350ef3784d08b2c73acb9f0b27a95f12db6fd1464736f6c634300050b0032",
					"opcodes": "PUSH1 0x80 PUSH1 0x40 MSTORE CALLVALUE DUP1 ISZERO PUSH2 0x10 JUMPI PUSH1 0x0 DUP1 REVERT JUMPDEST POP PUSH1 0x0 DUP1 PUSH1 0x0 PUSH2 0x100 EXP DUP2 SLOAD DUP2 PUSH1 0xFF MUL NOT AND SWAP1 DUP4 PUSH1 0x2 DUP2 GT ISZERO PUSH2 0x2F JUMPI INVALID JUMPDEST MUL OR SWAP1 SSTORE POP PUSH1 0xF3 DUP1 PUSH2 0x42 PUSH1 0x0 CODECOPY PUSH1 0x0 RETURN INVALID PUSH1 0x80 PUSH1 0x40 MSTORE CALLVALUE DUP1 ISZERO PUSH1 0xF JUMPI PUSH1 0x0 DUP1 REVERT JUMPDEST POP PUSH1 0x4 CALLDATASIZE LT PUSH1 0x32 JUMPI PUSH1 0x0 CALLDATALOAD PUSH1 0xE0 SHR DUP1 PUSH4 0x22F3E2D4 EQ PUSH1 0x37 JUMPI DUP1 PUSH4 0xC19D93FB EQ PUSH1 0x57 JUMPI JUMPDEST PUSH1 0x0 DUP1 REVERT JUMPDEST PUSH1 0x3D PUSH1 0x80 JUMP JUMPDEST PUSH1 0x40 MLOAD DUP1 DUP3 ISZERO ISZERO ISZERO ISZERO DUP2 MSTORE PUSH1 0x20 ADD SWAP2 POP POP PUSH1 0x40 MLOAD DUP1 SWAP2 SUB SWAP1 RETURN JUMPDEST PUSH1 0x5D PUSH1 0xAC JUMP JUMPDEST PUSH1 0x40 MLOAD DUP1 DUP3 PUSH1 0x2 DUP2 GT ISZERO PUSH1 0x6C JUMPI INVALID JUMPDEST PUSH1 0xFF AND DUP2 MSTORE PUSH1 0x20 ADD SWAP2 POP POP PUSH1 0x40 MLOAD DUP1 SWAP2 SUB SWAP1 RETURN JUMPDEST PUSH1 0x0 PUSH1 0x2 DUP1 DUP2 GT ISZERO PUSH1 0x8D JUMPI INVALID JUMPDEST PUSH1 0x0 DUP1 SWAP1 SLOAD SWAP1 PUSH2 0x100 EXP SWAP1 DIV PUSH1 0xFF AND PUSH1 0x2 DUP2 GT ISZERO PUSH1 0xA6 JUMPI INVALID JUMPDEST EQ SWAP1 POP SWAP1 JUMP JUMPDEST PUSH1 0x0 DUP1 SWAP1 SLOAD SWAP1 PUSH2 0x100 EXP SWAP1 DIV PUSH1 0xFF AND DUP2 JUMP INVALID LOG2 PUSH6 0x627A7A723158 KECCAK256 0xdd DUP14 0x5e 0xc8 0xc5 DELEGATECALL 0xdc 0xe1 PUSH28 0x8F1DE10350EF3784D08B2C73ACB9F0B27A95F12DB6FD1464736F6C63 NUMBER STOP SDIV SIGNEXTEND STOP ORIGIN "
				},
				"gasEstimates": {
					"creation": {
						"codeDepositCost": "48600",
						"executionCost": "20386",
						"totalCost": "68986"
					},
					"external": {
						"isActive()": "497",
						"state()": "473"
					}
				},
				"methodIdentifiers": {
					"isActive()": "22f3e2d4",
					"state()": "c19d93fb"
				}
			},
			"userdoc": {
				"methods": {}
			}
		}
	}
}